{
	"modifier.sol": {
		"Mod": {
			"abi": [
				{
					"inputs": [],
					"name": "Inc",
					"outputs": [
						{
							"internalType": "int256",
							"name": "",
							"type": "int256"
						}
					],
					"stateMutability": "nonpayable",
					"type": "function"
				},
				{
					"inputs": [],
					"name": "f",
					"outputs": [
						{
							"internalType": "bool",
							"name": "",
							"type": "bool"
						}
					],
					"stateMutability": "view",
					"type": "function"
				},
				{
					"inputs": [],
					"name": "favour",
					"outputs": [
						{
							"internalType": "uint256",
							"name": "",
							"type": "uint256"
						}
					],
					"stateMutability": "view",
					"type": "function"
				}
			],
			"devdoc": {
				"kind": "dev",
				"methods": {},
				"version": 1
			},
			"evm": {
				"assembly": "    /* \"modifier.sol\":27:277  contract Mod {... */\n  mstore(0x40, 0x80)\n    /* \"modifier.sol\":73:75  44 */\n  0x2c\n    /* \"modifier.sol\":49:75  uint256 public favour = 44 */\n  0x00\n  sstore\n    /* \"modifier.sol\":27:277  contract Mod {... */\n  callvalue\n  dup1\n  iszero\n  tag_1\n  jumpi\n  0x00\n  dup1\n  revert\ntag_1:\n  pop\n  dataSize(sub_0)\n  dup1\n  dataOffset(sub_0)\n  0x00\n  codecopy\n  0x00\n  return\nstop\n\nsub_0: assembly {\n        /* \"modifier.sol\":27:277  contract Mod {... */\n      mstore(0x40, 0x80)\n      callvalue\n      dup1\n      iszero\n      tag_1\n      jumpi\n      0x00\n      dup1\n      revert\n    tag_1:\n      pop\n      jumpi(tag_2, lt(calldatasize, 0x04))\n      shr(0xe0, calldataload(0x00))\n      dup1\n      0x0f4adbbc\n      eq\n      tag_3\n      jumpi\n      dup1\n      0x26121ff0\n      eq\n      tag_4\n      jumpi\n      dup1\n      0xccf19ee6\n      eq\n      tag_5\n      jumpi\n    tag_2:\n      0x00\n      dup1\n      revert\n        /* \"modifier.sol\":49:75  uint256 public favour = 44 */\n    tag_3:\n      tag_6\n      tag_7\n      jump\t// in\n    tag_6:\n      mload(0x40)\n      tag_8\n      swap2\n      swap1\n      tag_9\n      jump\t// in\n    tag_8:\n      mload(0x40)\n      dup1\n      swap2\n      sub\n      swap1\n      return\n        /* \"modifier.sol\":82:95  bool public f */\n    tag_4:\n      tag_10\n      tag_11\n      jump\t// in\n    tag_10:\n      mload(0x40)\n      tag_12\n      swap2\n      swap1\n      tag_13\n      jump\t// in\n    tag_12:\n      mload(0x40)\n      dup1\n      swap2\n      sub\n      swap1\n      return\n        /* \"modifier.sol\":199:274  function Inc() public  Pause returns(int256) {... */\n    tag_5:\n      tag_14\n      tag_15\n      jump\t// in\n    tag_14:\n      mload(0x40)\n      tag_16\n      swap2\n      swap1\n      tag_17\n      jump\t// in\n    tag_16:\n      mload(0x40)\n      dup1\n      swap2\n      sub\n      swap1\n      return\n        /* \"modifier.sol\":49:75  uint256 public favour = 44 */\n    tag_7:\n      sload(0x00)\n      dup2\n      jump\t// out\n        /* \"modifier.sol\":82:95  bool public f */\n    tag_11:\n      0x01\n      0x00\n      swap1\n      sload\n      swap1\n      0x0100\n      exp\n      swap1\n      div\n      0xff\n      and\n      dup2\n      jump\t// out\n        /* \"modifier.sol\":199:274  function Inc() public  Pause returns(int256) {... */\n    tag_15:\n        /* \"modifier.sol\":236:242  int256 */\n      0x00\n        /* \"modifier.sol\":151:153  33 */\n      0x21\n        /* \"modifier.sol\":141:147  favour */\n      sload(0x00)\n        /* \"modifier.sol\":141:153  favour <= 33 */\n      gt\n      iszero\n        /* \"modifier.sol\":133:173  require(favour <= 33, \"Check your code\") */\n      tag_19\n      jumpi\n      mload(0x40)\n      0x08c379a000000000000000000000000000000000000000000000000000000000\n      dup2\n      mstore\n      0x04\n      add\n      tag_20\n      swap1\n      tag_21\n      jump\t// in\n    tag_20:\n      mload(0x40)\n      dup1\n      swap2\n      sub\n      swap1\n      revert\n    tag_19:\n        /* \"modifier.sol\":265:266  1 */\n      0x01\n        /* \"modifier.sol\":255:261  favour */\n      0x00\n      dup1\n        /* \"modifier.sol\":255:266  favour += 1 */\n      dup3\n      dup3\n      sload\n      tag_23\n      swap2\n      swap1\n      tag_24\n      jump\t// in\n    tag_23:\n      swap3\n      pop\n      pop\n      dup2\n      swap1\n      sstore\n      pop\n        /* \"modifier.sol\":199:274  function Inc() public  Pause returns(int256) {... */\n      swap1\n      jump\t// out\n        /* \"#utility.yul\":7:84   */\n    tag_25:\n        /* \"#utility.yul\":44:51   */\n      0x00\n        /* \"#utility.yul\":73:78   */\n      dup2\n        /* \"#utility.yul\":62:78   */\n      swap1\n      pop\n        /* \"#utility.yul\":7:84   */\n      swap2\n      swap1\n      pop\n      jump\t// out\n        /* \"#utility.yul\":90:208   */\n    tag_26:\n        /* \"#utility.yul\":177:201   */\n      tag_38\n        /* \"#utility.yul\":195:200   */\n      dup2\n        /* \"#utility.yul\":177:201   */\n      tag_25\n      jump\t// in\n    tag_38:\n        /* \"#utility.yul\":172:175   */\n      dup3\n        /* \"#utility.yul\":165:202   */\n      mstore\n        /* \"#utility.yul\":90:208   */\n      pop\n      pop\n      jump\t// out\n        /* \"#utility.yul\":214:436   */\n    tag_9:\n        /* \"#utility.yul\":307:311   */\n      0x00\n        /* \"#utility.yul\":345:347   */\n      0x20\n        /* \"#utility.yul\":334:343   */\n      dup3\n        /* \"#utility.yul\":330:348   */\n      add\n        /* \"#utility.yul\":322:348   */\n      swap1\n      pop\n        /* \"#utility.yul\":358:429   */\n      tag_40\n        /* \"#utility.yul\":426:427   */\n      0x00\n        /* \"#utility.yul\":415:424   */\n      dup4\n        /* \"#utility.yul\":411:428   */\n      add\n        /* \"#utility.yul\":402:408   */\n      dup5\n        /* \"#utility.yul\":358:429   */\n      tag_26\n      jump\t// in\n    tag_40:\n        /* \"#utility.yul\":214:436   */\n      swap3\n      swap2\n      pop\n      pop\n      jump\t// out\n        /* \"#utility.yul\":442:532   */\n    tag_27:\n        /* \"#utility.yul\":476:483   */\n      0x00\n        /* \"#utility.yul\":519:524   */\n      dup2\n        /* \"#utility.yul\":512:525   */\n      iszero\n        /* \"#utility.yul\":505:526   */\n      iszero\n        /* \"#utility.yul\":494:526   */\n      swap1\n      pop\n        /* \"#utility.yul\":442:532   */\n      swap2\n      swap1\n      pop\n      jump\t// out\n        /* \"#utility.yul\":538:647   */\n    tag_28:\n        /* \"#utility.yul\":619:640   */\n      tag_43\n        /* \"#utility.yul\":634:639   */\n      dup2\n        /* \"#utility.yul\":619:640   */\n      tag_27\n      jump\t// in\n    tag_43:\n        /* \"#utility.yul\":614:617   */\n      dup3\n        /* \"#utility.yul\":607:641   */\n      mstore\n        /* \"#utility.yul\":538:647   */\n      pop\n      pop\n      jump\t// out\n        /* \"#utility.yul\":653:863   */\n    tag_13:\n        /* \"#utility.yul\":740:744   */\n      0x00\n        /* \"#utility.yul\":778:780   */\n      0x20\n        /* \"#utility.yul\":767:776   */\n      dup3\n        /* \"#utility.yul\":763:781   */\n      add\n        /* \"#utility.yul\":755:781   */\n      swap1\n      pop\n        /* \"#utility.yul\":791:856   */\n      tag_45\n        /* \"#utility.yul\":853:854   */\n      0x00\n        /* \"#utility.yul\":842:851   */\n      dup4\n        /* \"#utility.yul\":838:855   */\n      add\n        /* \"#utility.yul\":829:835   */\n      dup5\n        /* \"#utility.yul\":791:856   */\n      tag_28\n      jump\t// in\n    tag_45:\n        /* \"#utility.yul\":653:863   */\n      swap3\n      swap2\n      pop\n      pop\n      jump\t// out\n        /* \"#utility.yul\":869:945   */\n    tag_29:\n        /* \"#utility.yul\":905:912   */\n      0x00\n        /* \"#utility.yul\":934:939   */\n      dup2\n        /* \"#utility.yul\":923:939   */\n      swap1\n      pop\n        /* \"#utility.yul\":869:945   */\n      swap2\n      swap1\n      pop\n      jump\t// out\n        /* \"#utility.yul\":951:1066   */\n    tag_30:\n        /* \"#utility.yul\":1036:1059   */\n      tag_48\n        /* \"#utility.yul\":1053:1058   */\n      dup2\n        /* \"#utility.yul\":1036:1059   */\n      tag_29\n      jump\t// in\n    tag_48:\n        /* \"#utility.yul\":1031:1034   */\n      dup3\n        /* \"#utility.yul\":1024:1060   */\n      mstore\n        /* \"#utility.yul\":951:1066   */\n      pop\n      pop\n      jump\t// out\n        /* \"#utility.yul\":1072:1290   */\n    tag_17:\n        /* \"#utility.yul\":1163:1167   */\n      0x00\n        /* \"#utility.yul\":1201:1203   */\n      0x20\n        /* \"#utility.yul\":1190:1199   */\n      dup3\n        /* \"#utility.yul\":1186:1204   */\n      add\n        /* \"#utility.yul\":1178:1204   */\n      swap1\n      pop\n        /* \"#utility.yul\":1214:1283   */\n      tag_50\n        /* \"#utility.yul\":1280:1281   */\n      0x00\n        /* \"#utility.yul\":1269:1278   */\n      dup4\n        /* \"#utility.yul\":1265:1282   */\n      add\n        /* \"#utility.yul\":1256:1262   */\n      dup5\n        /* \"#utility.yul\":1214:1283   */\n      tag_30\n      jump\t// in\n    tag_50:\n        /* \"#utility.yul\":1072:1290   */\n      swap3\n      swap2\n      pop\n      pop\n      jump\t// out\n        /* \"#utility.yul\":1296:1465   */\n    tag_31:\n        /* \"#utility.yul\":1380:1391   */\n      0x00\n        /* \"#utility.yul\":1414:1420   */\n      dup3\n        /* \"#utility.yul\":1409:1412   */\n      dup3\n        /* \"#utility.yul\":1402:1421   */\n      mstore\n        /* \"#utility.yul\":1454:1458   */\n      0x20\n        /* \"#utility.yul\":1449:1452   */\n      dup3\n        /* \"#utility.yul\":1445:1459   */\n      add\n        /* \"#utility.yul\":1430:1459   */\n      swap1\n      pop\n        /* \"#utility.yul\":1296:1465   */\n      swap3\n      swap2\n      pop\n      pop\n      jump\t// out\n        /* \"#utility.yul\":1471:1636   */\n    tag_32:\n        /* \"#utility.yul\":1611:1628   */\n      0x436865636b20796f757220636f64650000000000000000000000000000000000\n        /* \"#utility.yul\":1607:1608   */\n      0x00\n        /* \"#utility.yul\":1599:1605   */\n      dup3\n        /* \"#utility.yul\":1595:1609   */\n      add\n        /* \"#utility.yul\":1588:1629   */\n      mstore\n        /* \"#utility.yul\":1471:1636   */\n      pop\n      jump\t// out\n        /* \"#utility.yul\":1642:2008   */\n    tag_33:\n        /* \"#utility.yul\":1784:1787   */\n      0x00\n        /* \"#utility.yul\":1805:1872   */\n      tag_54\n        /* \"#utility.yul\":1869:1871   */\n      0x0f\n        /* \"#utility.yul\":1864:1867   */\n      dup4\n        /* \"#utility.yul\":1805:1872   */\n      tag_31\n      jump\t// in\n    tag_54:\n        /* \"#utility.yul\":1798:1872   */\n      swap2\n      pop\n        /* \"#utility.yul\":1881:1974   */\n      tag_55\n        /* \"#utility.yul\":1970:1973   */\n      dup3\n        /* \"#utility.yul\":1881:1974   */\n      tag_32\n      jump\t// in\n    tag_55:\n        /* \"#utility.yul\":1999:2001   */\n      0x20\n        /* \"#utility.yul\":1994:1997   */\n      dup3\n        /* \"#utility.yul\":1990:2002   */\n      add\n        /* \"#utility.yul\":1983:2002   */\n      swap1\n      pop\n        /* \"#utility.yul\":1642:2008   */\n      swap2\n      swap1\n      pop\n      jump\t// out\n        /* \"#utility.yul\":2014:2433   */\n    tag_21:\n        /* \"#utility.yul\":2180:2184   */\n      0x00\n        /* \"#utility.yul\":2218:2220   */\n      0x20\n        /* \"#utility.yul\":2207:2216   */\n      dup3\n        /* \"#utility.yul\":2203:2221   */\n      add\n        /* \"#utility.yul\":2195:2221   */\n      swap1\n      pop\n        /* \"#utility.yul\":2267:2276   */\n      dup2\n        /* \"#utility.yul\":2261:2265   */\n      dup2\n        /* \"#utility.yul\":2257:2277   */\n      sub\n        /* \"#utility.yul\":2253:2254   */\n      0x00\n        /* \"#utility.yul\":2242:2251   */\n      dup4\n        /* \"#utility.yul\":2238:2255   */\n      add\n        /* \"#utility.yul\":2231:2278   */\n      mstore\n        /* \"#utility.yul\":2295:2426   */\n      tag_57\n        /* \"#utility.yul\":2421:2425   */\n      dup2\n        /* \"#utility.yul\":2295:2426   */\n      tag_33\n      jump\t// in\n    tag_57:\n        /* \"#utility.yul\":2287:2426   */\n      swap1\n      pop\n        /* \"#utility.yul\":2014:2433   */\n      swap2\n      swap1\n      pop\n      jump\t// out\n        /* \"#utility.yul\":2439:2619   */\n    tag_34:\n        /* \"#utility.yul\":2487:2564   */\n      0x4e487b7100000000000000000000000000000000000000000000000000000000\n        /* \"#utility.yul\":2484:2485   */\n      0x00\n        /* \"#utility.yul\":2477:2565   */\n      mstore\n        /* \"#utility.yul\":2584:2588   */\n      0x11\n        /* \"#utility.yul\":2581:2582   */\n      0x04\n        /* \"#utility.yul\":2574:2589   */\n      mstore\n        /* \"#utility.yul\":2608:2612   */\n      0x24\n        /* \"#utility.yul\":2605:2606   */\n      0x00\n        /* \"#utility.yul\":2598:2613   */\n      revert\n        /* \"#utility.yul\":2625:2816   */\n    tag_24:\n        /* \"#utility.yul\":2665:2668   */\n      0x00\n        /* \"#utility.yul\":2684:2704   */\n      tag_60\n        /* \"#utility.yul\":2702:2703   */\n      dup3\n        /* \"#utility.yul\":2684:2704   */\n      tag_25\n      jump\t// in\n    tag_60:\n        /* \"#utility.yul\":2679:2704   */\n      swap2\n      pop\n        /* \"#utility.yul\":2718:2738   */\n      tag_61\n        /* \"#utility.yul\":2736:2737   */\n      dup4\n        /* \"#utility.yul\":2718:2738   */\n      tag_25\n      jump\t// in\n    tag_61:\n        /* \"#utility.yul\":2713:2738   */\n      swap3\n      pop\n        /* \"#utility.yul\":2761:2762   */\n      dup3\n        /* \"#utility.yul\":2758:2759   */\n      dup3\n        /* \"#utility.yul\":2754:2763   */\n      add\n        /* \"#utility.yul\":2747:2763   */\n      swap1\n      pop\n        /* \"#utility.yul\":2782:2785   */\n      dup1\n        /* \"#utility.yul\":2779:2780   */\n      dup3\n        /* \"#utility.yul\":2776:2786   */\n      gt\n        /* \"#utility.yul\":2773:2809   */\n      iszero\n      tag_62\n      jumpi\n        /* \"#utility.yul\":2789:2807   */\n      tag_63\n      tag_34\n      jump\t// in\n    tag_63:\n        /* \"#utility.yul\":2773:2809   */\n    tag_62:\n        /* \"#utility.yul\":2625:2816   */\n      swap3\n      swap2\n      pop\n      pop\n      jump\t// out\n\n    auxdata: 0xa26469706673582212200cc4735394f0ecb50af646c3ced00d0e8e1afd005e6f5b215da2c845fcd73c4d64736f6c63430008120033\n}\n",
				"bytecode": {
					"linkReferences": {},
					"object": "6080604052602c60005534801561001557600080fd5b506102d1806100256000396000f3fe608060405234801561001057600080fd5b50600436106100415760003560e01c80630f4adbbc1461004657806326121ff014610064578063ccf19ee614610082575b600080fd5b61004e6100a0565b60405161005b9190610136565b60405180910390f35b61006c6100a6565b604051610079919061016c565b60405180910390f35b61008a6100b9565b60405161009791906101a0565b60405180910390f35b60005481565b600160009054906101000a900460ff1681565b600060216000541115610101576040517f08c379a00000000000000000000000000000000000000000000000000000000081526004016100f890610218565b60405180910390fd5b60016000808282546101139190610267565b9250508190555090565b6000819050919050565b6101308161011d565b82525050565b600060208201905061014b6000830184610127565b92915050565b60008115159050919050565b61016681610151565b82525050565b6000602082019050610181600083018461015d565b92915050565b6000819050919050565b61019a81610187565b82525050565b60006020820190506101b56000830184610191565b92915050565b600082825260208201905092915050565b7f436865636b20796f757220636f64650000000000000000000000000000000000600082015250565b6000610202600f836101bb565b915061020d826101cc565b602082019050919050565b60006020820190508181036000830152610231816101f5565b9050919050565b7f4e487b7100000000000000000000000000000000000000000000000000000000600052601160045260246000fd5b60006102728261011d565b915061027d8361011d565b925082820190508082111561029557610294610238565b5b9291505056fea26469706673582212200cc4735394f0ecb50af646c3ced00d0e8e1afd005e6f5b215da2c845fcd73c4d64736f6c63430008120033",
					"opcodes": "PUSH1 0x80 PUSH1 0x40 MSTORE PUSH1 0x2C PUSH1 0x0 SSTORE CALLVALUE DUP1 ISZERO PUSH2 0x15 JUMPI PUSH1 0x0 DUP1 REVERT JUMPDEST POP PUSH2 0x2D1 DUP1 PUSH2 0x25 PUSH1 0x0 CODECOPY PUSH1 0x0 RETURN INVALID PUSH1 0x80 PUSH1 0x40 MSTORE CALLVALUE DUP1 ISZERO PUSH2 0x10 JUMPI PUSH1 0x0 DUP1 REVERT JUMPDEST POP PUSH1 0x4 CALLDATASIZE LT PUSH2 0x41 JUMPI PUSH1 0x0 CALLDATALOAD PUSH1 0xE0 SHR DUP1 PUSH4 0xF4ADBBC EQ PUSH2 0x46 JUMPI DUP1 PUSH4 0x26121FF0 EQ PUSH2 0x64 JUMPI DUP1 PUSH4 0xCCF19EE6 EQ PUSH2 0x82 JUMPI JUMPDEST PUSH1 0x0 DUP1 REVERT JUMPDEST PUSH2 0x4E PUSH2 0xA0 JUMP JUMPDEST PUSH1 0x40 MLOAD PUSH2 0x5B SWAP2 SWAP1 PUSH2 0x136 JUMP JUMPDEST PUSH1 0x40 MLOAD DUP1 SWAP2 SUB SWAP1 RETURN JUMPDEST PUSH2 0x6C PUSH2 0xA6 JUMP JUMPDEST PUSH1 0x40 MLOAD PUSH2 0x79 SWAP2 SWAP1 PUSH2 0x16C JUMP JUMPDEST PUSH1 0x40 MLOAD DUP1 SWAP2 SUB SWAP1 RETURN JUMPDEST PUSH2 0x8A PUSH2 0xB9 JUMP JUMPDEST PUSH1 0x40 MLOAD PUSH2 0x97 SWAP2 SWAP1 PUSH2 0x1A0 JUMP JUMPDEST PUSH1 0x40 MLOAD DUP1 SWAP2 SUB SWAP1 RETURN JUMPDEST PUSH1 0x0 SLOAD DUP2 JUMP JUMPDEST PUSH1 0x1 PUSH1 0x0 SWAP1 SLOAD SWAP1 PUSH2 0x100 EXP SWAP1 DIV PUSH1 0xFF AND DUP2 JUMP JUMPDEST PUSH1 0x0 PUSH1 0x21 PUSH1 0x0 SLOAD GT ISZERO PUSH2 0x101 JUMPI PUSH1 0x40 MLOAD PUSH32 0x8C379A000000000000000000000000000000000000000000000000000000000 DUP2 MSTORE PUSH1 0x4 ADD PUSH2 0xF8 SWAP1 PUSH2 0x218 JUMP JUMPDEST PUSH1 0x40 MLOAD DUP1 SWAP2 SUB SWAP1 REVERT JUMPDEST PUSH1 0x1 PUSH1 0x0 DUP1 DUP3 DUP3 SLOAD PUSH2 0x113 SWAP2 SWAP1 PUSH2 0x267 JUMP JUMPDEST SWAP3 POP POP DUP2 SWAP1 SSTORE POP SWAP1 JUMP JUMPDEST PUSH1 0x0 DUP2 SWAP1 POP SWAP2 SWAP1 POP JUMP JUMPDEST PUSH2 0x130 DUP2 PUSH2 0x11D JUMP JUMPDEST DUP3 MSTORE POP POP JUMP JUMPDEST PUSH1 0x0 PUSH1 0x20 DUP3 ADD SWAP1 POP PUSH2 0x14B PUSH1 0x0 DUP4 ADD DUP5 PUSH2 0x127 JUMP JUMPDEST SWAP3 SWAP2 POP POP JUMP JUMPDEST PUSH1 0x0 DUP2 ISZERO ISZERO SWAP1 POP SWAP2 SWAP1 POP JUMP JUMPDEST PUSH2 0x166 DUP2 PUSH2 0x151 JUMP JUMPDEST DUP3 MSTORE POP POP JUMP JUMPDEST PUSH1 0x0 PUSH1 0x20 DUP3 ADD SWAP1 POP PUSH2 0x181 PUSH1 0x0 DUP4 ADD DUP5 PUSH2 0x15D JUMP JUMPDEST SWAP3 SWAP2 POP POP JUMP JUMPDEST PUSH1 0x0 DUP2 SWAP1 POP SWAP2 SWAP1 POP JUMP JUMPDEST PUSH2 0x19A DUP2 PUSH2 0x187 JUMP JUMPDEST DUP3 MSTORE POP POP JUMP JUMPDEST PUSH1 0x0 PUSH1 0x20 DUP3 ADD SWAP1 POP PUSH2 0x1B5 PUSH1 0x0 DUP4 ADD DUP5 PUSH2 0x191 JUMP JUMPDEST SWAP3 SWAP2 POP POP JUMP JUMPDEST PUSH1 0x0 DUP3 DUP3 MSTORE PUSH1 0x20 DUP3 ADD SWAP1 POP SWAP3 SWAP2 POP POP JUMP JUMPDEST PUSH32 0x436865636B20796F757220636F64650000000000000000000000000000000000 PUSH1 0x0 DUP3 ADD MSTORE POP JUMP JUMPDEST PUSH1 0x0 PUSH2 0x202 PUSH1 0xF DUP4 PUSH2 0x1BB JUMP JUMPDEST SWAP2 POP PUSH2 0x20D DUP3 PUSH2 0x1CC JUMP JUMPDEST PUSH1 0x20 DUP3 ADD SWAP1 POP SWAP2 SWAP1 POP JUMP JUMPDEST PUSH1 0x0 PUSH1 0x20 DUP3 ADD SWAP1 POP DUP2 DUP2 SUB PUSH1 0x0 DUP4 ADD MSTORE PUSH2 0x231 DUP2 PUSH2 0x1F5 JUMP JUMPDEST SWAP1 POP SWAP2 SWAP1 POP JUMP JUMPDEST PUSH32 0x4E487B7100000000000000000000000000000000000000000000000000000000 PUSH1 0x0 MSTORE PUSH1 0x11 PUSH1 0x4 MSTORE PUSH1 0x24 PUSH1 0x0 REVERT JUMPDEST PUSH1 0x0 PUSH2 0x272 DUP3 PUSH2 0x11D JUMP JUMPDEST SWAP2 POP PUSH2 0x27D DUP4 PUSH2 0x11D JUMP JUMPDEST SWAP3 POP DUP3 DUP3 ADD SWAP1 POP DUP1 DUP3 GT ISZERO PUSH2 0x295 JUMPI PUSH2 0x294 PUSH2 0x238 JUMP JUMPDEST JUMPDEST SWAP3 SWAP2 POP POP JUMP INVALID LOG2 PUSH5 0x6970667358 0x22 SLT KECCAK256 0xC 0xC4 PUSH20 0x5394F0ECB50AF646C3CED00D0E8E1AFD005E6F5B 0x21 0x5D LOG2 0xC8 GASLIMIT 0xFC 0xD7 EXTCODECOPY 0x4D PUSH5 0x736F6C6343 STOP ADDMOD SLT STOP CALLER "
				},
				"gasEstimates": {
					"creation": {
						"codeDepositCost": "144200",
						"executionCost": "22296",
						"totalCost": "166496"
					},
					"external": {
						"Inc()": "infinite",
						"f()": "2471",
						"favour()": "2407"
					}
				},
				"methodIdentifiers": {
					"Inc()": "ccf19ee6",
					"f()": "26121ff0",
					"favour()": "0f4adbbc"
				}
			},
			"storageLayout": {
				"storage": [
					{
						"astId": 4,
						"contract": "modifier.sol:Mod",
						"label": "favour",
						"offset": 0,
						"slot": "0",
						"type": "t_uint256"
					},
					{
						"astId": 6,
						"contract": "modifier.sol:Mod",
						"label": "f",
						"offset": 0,
						"slot": "1",
						"type": "t_bool"
					}
				],
				"types": {
					"t_bool": {
						"encoding": "inplace",
						"label": "bool",
						"numberOfBytes": "1"
					},
					"t_uint256": {
						"encoding": "inplace",
						"label": "uint256",
						"numberOfBytes": "32"
					}
				}
			},
			"userdoc": {
				"kind": "user",
				"methods": {},
				"version": 1
			}
		}
	}
}